:100000001DC04DC04CC066C04AC049C048C047C0B2
:10001000A0C045C044C043C042C041C040C03FC072
:100020003EC03DC03CC03BC03AC039C082C28FC256
:1000300036C035C032075A0765076A0711241FBE4C
:10004000CFEFCDBFDFE3DEBF8EEA8093010487E010
:100050008093210487E18093410A81E080930A0A1A
:100060001FE3A0E0BFE3EEEEFEE002C005900D92BC
:10007000A230B107D9F72FE3A2E0BFE301C01D9280
:10008000AA38B207E1F710E0CEE1D0E003C0219733
:10009000FE0125D7CA31D107D1F774D626C7B0CF14
:1000A00080910608882329F08091083F9091093FAC
:1000B00007C282E38093893F81E08093000A08951C
:1000C00090910A3F981301C0806880930A3F109274
:1000D000500008951F920F920FB60F9211242F9384
:1000E0003F934F935F936F937F938F939F93AF93C0
:1000F000BF93EF93FF938091200A9091210A809300
:10010000083F9093093F80910608882321F01092C0
:10011000200A1092210A80E180930904809116043C
:1001200088E0809316041092500084E09FE316D17B
:10013000FF91EF91BF91AF919F918F917F916F91BF
:100140005F914F913F912F910F900FBE0F901F9095
:1001500018951F920F920FB60F9211242F933F9371
:100160004F935F936F937F938F939F93AF93BF93BF
:10017000EF93FF9381E080930B0A85E89FE3EED035
:10018000FF91EF91BF91AF919F918F917F916F916F
:100190005F914F913F912F910F900FBE0F901F9045
:1001A00018958091723F81608F3F09F041C0809126
:1001B000400A882309F45DC08091733F9091743F99
:1001C000892B09F456C021E0E091733FF091743F10
:1001D00080818F3F21F51092400A1092000A109200
:1001E0004A0A10924B0A1092200A1092210A818129
:1001F000815080934C0A828191818902C00111242F
:1002000001978093260A9093270A2093400A20930F
:10021000000A3396E093733FF093743FD5CF882361
:10022000A9F03196E093733FF093743F8093723F4F
:100230008091723F87FF1FC0282F082E000C330BC0
:10024000359527952093723F817008951092733FE2
:100250001092743F9091893F911108C02091023F04
:100260003091033F232B11F41092000A1092400AA0
:10027000DDCF80E0DBCF9EEF980F9093723FE4CF0D
:100280009091400A81E0911101C080E00895E091D1
:100290000C3FF0910D3FCF01019680930C3F90935E
:1002A0000D3F8EE78083E0910C3FF0910D3F9F0161
:1002B0002F5F3F4F20930C3F30930D3F8083E091A1
:1002C0000C3FF0910D3F10828EE09FE38093733FCF
:1002D0009093743F81E08093400A8093000A0895D0
:1002E0009C018091400A8111FCCF8EE09FE38093B6
:1002F0000C3F90930D3F8EE721503109E0910C3F68
:10030000F0910D3F2F3F320749F0AF014F5F5F4F34
:1003100040930C3F50930D3F8083EECF1082B7CFB8
:10032000FC01A0917A3FB0917B3F109791F012961B
:100330008D919C9182839383A0917A3FB0917B3F72
:100340001296ED93FC931397E0937A3FF0937B3FE3
:10035000089580937A3F90937B3FEECFFC0180918C
:10036000763F8823B9F1A0917A3FB0917B3F1097F7
:1003700061F112968D919C9182839383A0917A3F33
:10038000B0917B3F1296ED93FC9313978091753F4C
:10039000811141C081E08093753F8091773F9091BA
:1003A000783F892BB1F1789486E79FE360D5FC0113
:1003B000892B31F489E79FE35AD5FC01892B39F168
:1003C0000190F081E02D0995EFCFE0937A3FF09313
:1003D0007B3FD4CFA091773FB091783F109791F0B9
:1003E00012968D919C9182839383A091773FB091D7
:1003F000783F1296ED93FC931397E093773FF09339
:10040000783FC4CFE093773FF093783FEECFF894F6
:10041000C4CF1092753F0895FC01608371831282EE
:1004200013820895F8949ADF78940895E091823FBA
:10043000F091833F80910C3F90910D3F8E179F0765
:1004400059F48EE09FE38093823F9093833F8093A3
:100450000C3F90930D3F0895CF0101968093823F0A
:100460009093833F80818093020880910508806289
:100470008093050808958EE09FE38093823F9093D8
:10048000833F80930C3F90930D3F8FEF9FEF8093BE
:10049000260A9093270A89E08093000A81E08093DE
:1004A000140484E790E0809308089093090880E89A
:1004B0008093050890EC9093060880930504FFCF85
:1004C0009C018091080484FD06C08091803F90913A
:1004D000813F892B99F02093803F3093813FE091B9
:1004E0000C3FF0910D3F21933193E0930C3FF0933B
:1004F0000D3F8091050880628093050808958091E2
:10050000803F9091813F892B99F01092803F10920B
:10051000813FE0910C3FF0910D3F11921192E093D9
:100520000C3FF0930D3F8091050880628093050891
:1005300008951F920F920FB60F9211248F938091FE
:1005400000088F910F900FBE0F901F9018951F926B
:100550000F920FB60F9211242F933F934F935F93F7
:100560006F937F938F939F93AF93BF93EF93FF937B
:10057000E0E0F8E085818F7D85838CE79FE3EEDE08
:10058000FF91EF91BF91AF919F918F917F916F916B
:100590005F914F913F912F910F900FBE0F901F9041
:1005A00018958370E0910C3FF0910D3F9F012F5FF4
:1005B0003F4F20930C3F30930D3F813039F0823014
:1005C00039F0811107C085EE8083089581E9FCCF61
:1005D00085E8FACF81EE8083E0910C3FF0910D3FEA
:1005E0009F012F5F3F4F20930C3F30930D3FECCF87
:1005F0000F931F93CF93C82FD4DF0C2F0C2E000C1A
:10060000110B8C2F85958595CCDFC80124E095953D
:1006100087952A95E1F7C5DFC80136E0959587955E
:100620003A95E1F7CF911F910F91BBCF0F931F9395
:10063000CF93DF93082F162FD42FC22F21DE8111E5
:10064000FDCF8FEF80930E3F88E580930F3F85E1CC
:100650008093103FCC0FC150C093113F83E19FE3C3
:1006600080930C3F90930D3F8EE08093123F802F3C
:10067000BFDF812FBDDF8D2FBBDF8D2F8095B8DFD2
:10068000E0910C3FF0910D3FCF01019680930C3F1C
:1006900090930D3F81EE8083DF91CF911F910F9159
:1006A000F6CD462F682F609520E130E0BFCF462F72
:1006B00020E130E0692FBACF28E030E0B7CF9C01CD
:1006C00080E190E041EE50EEE0910C3FF0910D3F63
:1006D000BF016F5F7F4F60930C3F70930D3F40836E
:1006E00020FF0CC0E0910C3FF0910D3FBF016F5F08
:1006F0007F4F60930C3F70930D3F50833595279546
:10070000019711F70895CF93DF9320E26202E00191
:100710001124082E000C990BC82BD92BD062B0DD08
:100720008111FDCF8FEF80930E3F8EE480930F3FBA
:1007300081E19FE380930C3F90930D3F8AE080938B
:10074000103FCE01BCDFE0910C3FF0910D3FCF0197
:10075000019680930C3F90930D3F8EE78083E0914C
:100760000C3FF0910D3F9F012F5F3F4F20930C3FB7
:1007700030930D3F8083CE0120EE82272FE7922712
:100780009EDFDF91CF9183CD9B0121503109C8F0CD
:10079000482F082E000C550B80FD11C089EFE09109
:1007A0000C3FF0910D3FBF016F5F7F4F60930C3F97
:1007B00070930D3F8083CA0195958795E6CF83EFAF
:1007C000EECF0895CF92DF92EF92FF920F931F9397
:1007D000CF93DF93082FC62FD42F122F51DD811115
:1007E000FDCF8FEF80930E3F83E580930F3F81E134
:1007F0009FE380930C3F90930D3F88E18093103FDF
:1008000083E0E82EF12C9FECC92E26E5D22EE09154
:100810000C3FF0910D3FCF01019680930C3F9093D8
:100820000D3FC08267E070E0802FAEDF1F3039F0EF
:1008300065E070E08C2FA8DFCD2F1C3021F068E040
:1008400070E08C2FA1DFE0910C3FF0910D3FCF01C4
:10085000019680930C3F90930D3FD08281E0E81A7F
:10086000F108A9F6DF91CF911F910F91FF90EF90C2
:10087000DF90CF900CCD2CE040E0A4CF2FE040E003
:10088000A1CF24E19FCF63E081E03DDF63E184E01D
:1008900008DF63E080E405DF46E067E087E00CDF27
:1008A00063E080E07ED161E082E0E5CF67E081E057
:1008B0002ADF67E184E0F5DE67E080E4F2DE4CE009
:1008C00067E087E0F9DE67E080E06BD161E086E019
:1008D000D2CF69E081E017DF69E184E0E2DE69E020
:1008E00080E4DFDE4EE067E087E0E6DE69E080E09E
:1008F00058D161E088E0BFCF66E181E004DF68E0C5
:1009000084E0CFDE62E180E4CCDE42E067E087E0B5
:10091000D3DE6CE080E045D161E085E1ACCF61E100
:1009200081E0F1DE60E084E0BCDE6BE180E4B9DE12
:1009300042E167E087E0C0DE60E280E032D161E062
:1009400080E199CF62E181E0DEDE61E084E0A9DE52
:100950006FE180E4A6DE40E167E087E0ADDE61E2C2
:1009600080E01FD161E081E186CF67E181E0CBDEED
:1009700069E084E096DE60E180E493DE4FE067E0CA
:1009800087E09ADE6DE080E00CD161E084E173CF16
:1009900064E181E0B8DE62E084E083DE6AE180E465
:1009A00080DE47E067E087E087DE60E180E0F9D045
:1009B00061E082E160CF65E181E0A5DE63E084E093
:1009C00070DE6EE180E46DDE4BE067E087E074DEB0
:1009D00061E180E0E6D061E083E14DCF63E181E059
:1009E00092DE6BE084E05DDE6FE080E45ADE41E0A1
:1009F00067E087E061DE68E380E0D3D061E085E214
:100A00003ACF41DF61E081E07EDE61E184E049DEF2
:100A100061E080E446DE44E067E087E04DDE61E0CF
:100A200080E0BFD061E080E026CF2DDF62E081E092
:100A30006ADE62E184E035DE62E080E432DE45E0D9
:100A400067E087E039DE62E080E0ABD061E081E022
:100A500012CF2CDF84E190E043DC28CF3ADF84E141
:100A600090E03EDC36CF44E050E09EEF415051092B
:100A700079F0990F990F282F082E000C330B80FF67
:100A800005C0926035952795822FF0CF9F5FFACFF2
:100A9000E0910C3FF0910D3F9F012F5F3F4F20935E
:100AA0000C3F30930D3F908308959B019EEF2150A2
:100AB000310978F0990F990F482F082E000C550B2B
:100AC00080FF05C09F5F55954795842FF0CF9260BA
:100AD000FACFE0910C3FF0910D3F9F012F5F3F4F08
:100AE00020930C3F30930D3F908308950F931F93F5
:100AF000CF93C82F082F082E000C110B63E070E075
:100B000085958595859585958595CFDFC8019595C2
:100B100087959595879563E070E0C7DF62E070E0A8
:100B20008C2FCF911F910F91C0CF1F93CF93DF9345
:100B3000D82FC62F142FA4DB8111FDCF8FEF809308
:100B40000E3F8DE580930F3F80E18093103F89E059
:100B50008093113F83E19FE380930C3F90930D3F7F
:100B600089EC8093123F64E070E0812F9EDF9091CA
:100B7000003F8FE098279093003FE0910C3FF09169
:100B80000D3F9F012F5F3F4F20930C3F30930D3F50
:100B900090838D2FABDF8C2FA9DFDF91CF911F9139
:100BA00076CBCF93DF93D62FC091843F90E2C927B5
:100BB000C093843FC82B64DB8111FDCF8FEF8093FE
:100BC0000E3F8DE580930F3F80E28093103F82E1DE
:100BD0009FE380930C3F90930D3F85EF8093113FEF
:100BE0008C2F8595859585953EDF8C2F3CDF8D2F4D
:100BF00085958595859537DF8D2F35DFDF91CF91F1
:100C000046CBCF93DF93CDB7DEB780E094E02EE004
:100C1000FC01258380E294E023E0FC012583ACD035
:100C2000982F81E08927882319F080E049DA45C0B0
:100C300080E094E028E0FC0126839ED0982F81E09C
:100C40008927882319F083E03BDA37C080E094E0FD
:100C500024E0FC01268390D0982F81E08927882307
:100C600019F082E02DDA29C080E094E022E0FC0156
:100C7000268382D0982F81E08927882319F081E08C
:100C80001FDA1BC080E294E022E0FC01268374D0CE
:100C9000982F81E08927882319F085E011DA0DC0AB
:100CA00080E294E021E0FC01268366D0982F81E069
:100CB0008927882311F084E003DA80E094E02EE0B5
:100CC000FC01268380E294E023E0FC01268380E09F
:100CD00094E020E4FC01218780E094E02BE0FC011B
:100CE000268B0000DF91CF91089580910608811135
:100CF00006CC57DA882381F08EE180934D0A80E894
:100D0000809305048091893F882391F081508093DE
:100D1000893F811125C075CF10924D0A8091023F05
:100D20009091033F892B71F780E880930604EACF06
:100D30008091023F9091033F009749F020E8209373
:100D4000050401978093023F9093033F089580919B
:100D5000400A811105C01092000A80E880930604C1
:100D60000895019741F46F3F7F4F29F465E776E0DE
:100D700085E89FE351CB08958091080486FB88277E
:100D800080F908958FE08093000A87E397E08093CD
:100D9000260A9093270A80910B0A8823E1F381E0C9
:100DA00080930B0A78948091280483FD64DB8BE0A8
:100DB00080931604C5E000E117E2C09350008091D3
:100DC0000A3F90910B3F9817D1F090910A3F909372
:100DD0000B3F2091023F3091033F892F8770232BD7
:100DE00021F11092023F1092033F8330D1F092FD27
:100DF0000CC0813091F0823091F0882361F08091B5
:100E0000000A8111DACF8895D8CF843061F085301F
:100E1000B1F70BDEF4CF22DEF2CF1BDEF0CFF1DD37
:100E2000EECFA3DDECCF68DDEACF8330A1F092FDF9
:100E300008C0813061F0823061F08111E0CFBBDD0C
:100E4000DECF843051F08530D1F6A2DDD8CF7ADD07
:100E5000D6CF65DDD4CFC2DDD2CF0093023F109351
:100E6000033FCDCF60E570E084E09FE3D5CACF9328
:100E7000DF93FC0181E08083A181B28190E080E07A
:100E80001097A1F012968D919C911397EC012A81F5
:100E90003B8112962D933C9313971A821B821296D4
:100EA0002D913C91232B11F4118212821082DF913B
:100EB000CF910895E9E7FFE3108211821282E6E7FD
:100EC000FFE3108211821282089566E172E08CE7DE
:100ED0009FE3A2CA65E776E085E89FE39DCAEE0F2F
:0E0EE000FF1F0590F491E02D0994F894FFCFC8
:020EEE00EC0016
:00000001FF
